:100000000C9446000C9465000C9465000C946500FB
:100010000C9465000C9465000C9465000C946500CC
:100020000C9465000C9465000C9465000C946500BC
:100030000C9465000C94DE000C9465000C94650033
:100040000C9465000C9465000C9465000C9465009C
:100050000C9465000C9465000C9465000C9465008C
:100060000C9465000C9465000C9465000C9465007C
:100070000C9465000C9465000C9465000C9465006C
:100080000C9465000C9465000C94650011241FBE4F
:10009000CFEFD0E4DEBFCDBF12E0A0E0B1E0E6E9F3
:1000A000F9E000E00BBF02C007900D92A430B10749
:1000B000D9F722E0A4E0B2E001C01D92A531B20759
:1000C000E1F70E94FB020C94C9040C940000CF934A
:1000D000DF9300D01F92CDB7DEB789837B836A831D
:1000E00089818A3031F48A819B81BC018DE00E9434
:1000F000670080EC90E0FC018081882F90E08072A6
:100100009927892BB1F386EC90E02981FC012083AB
:1001100080E090E00F900F900F90DF91CF910895C5
:10012000CF93DF93CDB7DEB781E890E02BE0FC0101
:10013000208388E890E02DE730E0FC0131832083C4
:100140008FE690E022E0FC01208384E890E0FC014F
:100150001182108280910E0190910F01A0911001E7
:10016000B09111018093050290930602A0930702BB
:10017000B09308028FE590E02FE530E0F90120818F
:100180002068FC0120830000DF91CF910895CF9378
:10019000DF93CDB7DEB781E890E0FC01108200006C
:1001A000DF91CF910895CF93DF93CDB7DEB781E094
:1001B000809304020000DF91CF9108951F920F9267
:1001C00000905F000F92112400905B000F922F931C
:1001D0003F934F935F936F937F938F939F93AF93CF
:1001E000BF93EF93FF93CF93DF93CDB7DEB78091AB
:1001F000050290910602A0910702B09108020197B2
:10020000A109B1098093050290930602A093070209
:10021000B09308028091050290910602A091070216
:10022000B0910802892B8A2B8B2B91F40E94D3006A
:1002300080910E0190910F01A0911001B0911101D8
:100240008093050290930602A0930702B0930802E0
:100250000000DF91CF91FF91EF91BF91AF919F91FE
:100260008F917F916F915F914F913F912F910F905F
:1002700000925B000F9000925F000F901F90189506
:10028000CF93DF9300D000D0CDB7DEB769837A83F8
:100290008B839C8389819A81AB81BC8180930E0181
:1002A00090930F01A0931001B093110180910E0162
:1002B00090910F01A0911001B0911101809305025E
:1002C00090930602A0930702B093080200000F90DB
:1002D0000F900F900F90DF91CF9108950F931F9380
:1002E000CF93DF9300D000D0CDB7DEB769837A8398
:1002F0008B839C8380910D0290910E02A0910F023E
:10030000B09110029C01AD0169817A818B819C8141
:100310000E943503882309F477C020E030E0A9016A
:1003200069817A818B819C810E943503882351F4F5
:1003300081E990E021E930E0F90120812870FC0199
:10034000208309C081E990E021E930E0F9012081B2
:100350002360FC01208328E539E344E75FE36981FA
:100360007A818B819C810E943503882344F488E93B
:1003700090E02FEF3FEFFC013183208334C020E079
:1003800034E244EF56E469817A818B819C810E943A
:100390005704181634F488E990E0FC0111821082A9
:1003A00022C008E910E020E030E040E053E4698139
:1003B0007A818B819C810E945C04DC01CB019C01D1
:1003C000AD0160E074E284EF9AE40E943A03DC013C
:1003D000CB01BC01CD010E94AC03DC01CB01019734
:1003E000F8019183808384E990E0FC0111821082FE
:1003F00089819A81AB81BC8180930D0290930E021A
:10040000A0930F02B093100200000F900F900F9076
:100410000F90DF91CF911F910F910895CF93DF93AC
:10042000CDB7DEB780E990E020E4FC01208381E9CC
:1004300090E02BE0FC01208360E070E0CB010E94A3
:100440006E010000DF91CF910895CF93DF93CDB778
:10045000DEB780E990E0FC01108281E990E0FC01C8
:1004600010820000DF91CF910895CF93DF931F9208
:10047000CDB7DEB780E290E0FC018081882F90E06C
:100480008170992721E0892B09F020E02983809150
:1004900012029091130281309105D1F081309105C3
:1004A00030F08230910549F10397D9F14AC010929A
:1004B00014021092090210920A0210920B0210927A
:1004C0000C0281E090E090931302809312023AC0F4
:1004D0008981882359F0109214021092110282E04F
:1004E00090E090931302809312022CC081E090E080
:1004F000909313028093120225C090911402809170
:100500000202981738F482E090E0909313028093EF
:10051000120218C083E090E09093130280931202BD
:1005200011C08981882339F083E090E09093130211
:100530008093120206C081E090E0909313028093B2
:1005400012020000809112029091130281309105F5
:1005500051F08130910508F448C082309105A9F02E
:10056000039751F043C01092090210920A021092B0
:100570000B0210920C023AC01092090210920A0269
:1005800010920B0210920C0231C0809111028F5F09
:100590008093110280911402882F90E08E529E4F1A
:1005A000FC01908180911102981738F41092110289
:1005B000809114028F5F8093140280911402882F1F
:1005C00090E0880F991F880F991F8E5E9E4FFC0147
:1005D00080819181A281B3818093090290930A0264
:1005E000A0930B02B0930C0201C0000000000F901A
:1005F000DF91CF910895CF93DF93CDB7DEB781E23E
:1006000090E0FC01108282E290E02FEFFC01208359
:1006100084E290E02FEFFC01208385E290E0FC0172
:1006200010820E940E0264E670E080E090E00E947A
:1006300040010E94900010921302109212020E9438
:1006400035028091090290910A02A0910B02B091AB
:100650000C02BC01CD010E946E01000080910402D9
:100660008823E1F310920402EACF0E94E20308F427
:1006700081E008950E944E030C941D040E9416040C
:1006800058F00E940F0440F029F45F3F29F00C94C9
:10069000060451110C9451040C940C040E942E0475
:1006A00068F39923B1F3552391F3951B550BBB27A1
:1006B000AA2762177307840738F09F5F5F4F220FE6
:1006C000331F441FAA1FA9F335D00E2E3AF0E0E8DD
:1006D00032D091505040E695001CCAF72BD0FE2F27
:1006E00029D0660F771F881FBB1F261737074807BB
:1006F000AB07B0E809F0BB0B802DBF01FF27935873
:100700005F4F3AF09E3F510578F00C9406040C942C
:1007100051045F3FE4F3983ED4F38695779567954F
:10072000B795F7959F5FC9F7880F911D96958795A7
:1007300097F90895E1E0660F771F881FBB1F6217C6
:1007400073078407BA0720F0621B730B840BBA0B84
:10075000EE1F88F7E09508950E94B3036894B111E5
:100760000C94510408950E94360488F09F5798F025
:10077000B92F9927B751B0F0E1F0660F771F881FA6
:10078000991F1AF0BA95C9F714C0B13091F00E94C0
:100790005004B1E008950C945004672F782F8827F7
:1007A000B85F39F0B93FCCF3869577956795B395E7
:1007B000D9F73EF490958095709561957F4F8F4F56
:1007C0009F4F0895990F0008550FAA0BE0E8FEEF20
:1007D00016161706E807F907C0F012161306E40705
:1007E000F50798F0621B730B840B950B39F40A26FE
:1007F00061F0232B242B252B21F408950A2609F4DC
:10080000A140A6958FEF811D811D089597F99F67DF
:1008100080E870E060E008959FEF80EC0895002488
:100820000A941616170618060906089500240A9455
:1008300012161306140605060895092E0394000CDB
:1008400011F4882352F0BB0F40F4BF2B11F460FF6A
:1008500004C06F5F7F4F8F4F9F4F089557FD905893
:10086000440F551F59F05F3F71F04795880F97FB74
:10087000991F61F09F3F79F087950895121613062E
:100880001406551FF2CF4695F1DF08C0161617065D
:100890001806991FF1CF8695710561050894089592
:1008A000E894BB2766277727CB0197F908950E9424
:1008B000E20308F48FEF08950E946F040C941D0466
:1008C0000E940F0438F00E94160420F0952311F0C6
:1008D0000C9406040C940C0411240C9451040E94F2
:1008E0002E0470F3959FC1F3950F50E0551F629F42
:1008F000F001729FBB27F00DB11D639FAA27F00D79
:10090000B11DAA1F649F6627B00DA11D661F829F9F
:100910002227B00DA11D621F739FB00DA11D621F84
:10092000839FA00D611D221F749F3327A00D611DA1
:10093000231F849F600D211D822F762F6A2F112483
:100940009F5750409AF0F1F088234AF0EE0FFF1FB6
:10095000BB1F661F771F881F91505040A9F79E3F0D
:10096000510580F00C9406040C9451045F3FE4F3AD
:10097000983ED4F3869577956795B795F795E79563
:100980009F5FC1F7FE2B880F911D9695879597F96C
:060990000895F894FFCF6A
:1009960000000002000000006700000000000100E7
:1009A6000000B8FEB84300000000B8FEB8430000DF
:1009B6000000719DAE4300000000719DAE43000033
:1009C6000000A4F07643000000007BD49243A4F01C
:1009D600764300000000A4F0764300000000B8FE55
:1009E600B84300000000B8FEB84300000000719D47
:1009F600AE4300000000719DAE4300000000A4F06D
:100A0600764300000000B8FEB84300000000B8FEC0
:100A1600B84300000000719DAE4300000000719DC8
:100A2600AE4300000000A4F07643000000007BD433
:100A3600924300000000A4F07643000000007BD43F
:100A4600924300000000A4D0A44300000000A4D0FC
:100A56008243000000007BD4924300000000A4F013
:100A660076430201020102010201020103030102AF
:100A76000101010301020102010209020102010250
:100A86000102010201020104010201020102010246
:040A96000102300029
:00000001FF
